:04000000803116280D
:100008007E14803140017F08F4000B1F11284E0137
:100018009A18901C11288031992074084001FF001B
:100028007E10090080311828F001F101F201F30176
:1000380020308400003085001D308031E0207E10A3
:1000480040018031EB28400198019A013730920035
:10005800333094003C307E01CE001F30B800B90127
:10006800CF01BA01D0011F30BB003F30D1003F3073
:10007800BC003F30D2001530A00010307D01C50013
:100088000B307E01A3001630A1000B30A200113006
:100098007D01C60008000034003400340034003408
:1000A80000340034003400340034003400340034A8
:1000B8000034003400340034003400340034003498
:1000C8000034003400340034003400340034003488
:1000D8000034003400348031D02080318031BF209A
:1000E80080318031272080318031AB2080318031D0
:1000F800D82080318031C8208031803184200800A8
:100108000130450190008F0191013E308D008C0136
:100118004E0190109A14EF30F5000030F60080314F
:10012800E620F03045018E0008004E0190100130A5
:10013800F2070030F33D00307302053003197202F4
:10014800031C08008031B520F201F301080060307B
:1001580051018D008F0191010630930090019201A9
:100168000800770878040319080078088A007708D7
:100178000A008031080043018F0108309000910186
:100188004F308D00901208008030460196001F30D5
:1001980095004030940008004F019601970198019E
:1001A80099019A019B010800013041019D007030BE
:1001B8009E009B019C010800640080010131890BAD
:1001C800E12800347608F8007508F7000800803147
:0801D8006F208031EE280800C1
:020000040001F9
:0A000E00EC3FFF3F9F3FFF3FFF3F25
:00000001FF
