:04000000803116280D
:100008007E14803140017F08F5000B1F11284E0136
:100018009A18901C11288231752275084001FF003A
:100028007E100900803118288231E3228031FB00DC
:10003800F601F701F801F901FA01203084000030D7
:1000480085002D308231CB227E1040018131FA2982
:1000580040014B08D300D4015308CD005408CE000A
:100068000330CF000030D0008231182280314001A7
:100078004D08023ED50000304E3DD6008930550768
:1000880084008230563D850000085A050319682807
:100098004B08D300D4015308CD005408CE000330D8
:1000A800CF000030D00082311822803140014E0844
:1000B80085004D088400893084078230853D013FE2
:1000C8008A00003F0A00803101304001D300530804
:1000D800CB0704304B02031C0800D901CB01803048
:1000E8005A060319932840305A06031993282030DA
:1000F8005A060319932810305A0603199328083012
:100108005A060319932804305A0603199328023013
:100118005A06031993285A03031993289228400171
:100128005A36D3005308DA005A08031D08008030F5
:10013800D3005308DA00080044010D084001CD003F
:100148004D08D20044010C084001CD004D08D100F3
:10015800520844010D060319BC280D084001CD00C2
:100168004D08D20044010C084001CD004D08D100D3
:1001780040015208CD00CE014D08CE00CD0100301F
:100188004D05F600FF304E05F70076085104F600DD
:100198007708F7004109CD004209CE00CD0A0319BE
:1001A800CE0A76084D07CF0077084E3DD0000330C1
:1001B8005002E83003194F02031C08004108E83ECA
:1001C800C1000330423DC2000130C7070030C83DBE
:1001D80003304802E83003194702031CF928C70115
:1001E800C8010130C5070030C63D0130C3070030E3
:1001F800C43D003044020A3003194302031C0800BE
:100208005908031D0800C301C401D901D90A08000F
:100218007A03031D08005B290130F8070030F93D17
:1002280000307902653003197802031C2029023056
:10023800F4007408FB00662908304001C907003043
:10024800CA3D66290130F8070030F93D01307902CE
:100258002C3003197802031C37290330F400740882
:10026800FB0040014829400149084A04031966294E
:1002780000304A02053003194902031C482904309A
:10028800C9020030CA3B6629C901CA016629013082
:10029800F8070030F93D01307902913003197802EE
:1002A800031C6629F801F901FB01FB0A66297B0892
:1002B800013A03191029033A03192629013A0319A7
:1002C8004B29662940014A08F1004908F0008231AB
:1002D8004A2208008231D72281314001CB01803087
:1002E800CD004D08DA00D901D90AC701C801C501F6
:1002F800C601C301C40144010D084001CD004D08E9
:10030800D10044010C084001CD004D08D00051082F
:1003180044010D0603199B290D084001CD004D0825
:10032800D10044010C084001CD004D08D000400127
:100338005108CD00CE014D08CE00CD0100304D054D
:10034800F600FF304E05F70076085004F6007708EF
:10035800F7007708C2007608C1000800400198013C
:100368009A01373092001330940010307E01CE008D
:100378001F30B800B901CF01BA01D0011F30BB004E
:100388003F30D1003F30BC003F30D2001530A000D4
:1003980010307D01C5000B307E01A3001630A1008E
:1003A8000B30A20011307D01C60008000034003473
:1003B8000034003400340034003400340034003495
:1003C8000034003400340034003400340034003485
:1003D8000034003400340034003400340034003475
:1003E8000034003400340034003400348231602298
:1003F800813181316E2181310C304001CD000130D5
:10040800CE008231D12281318231DD2281318B17B8
:100418000B178031A02081314001590803190D2A9A
:1004280080312C2081310D2A4001D101D2014D1C8F
:10043800212A4F08D1075008D23D0130CF35D00DC1
:10044800890B222A0130CE36CD0C890B272A4D087C
:100458004E04031D1B2A5208CE005108CD00080087
:100468000130450190008F019101F9308D008C0118
:100478004E0190109A14E5304001CD000230CE00B4
:100488008231D122D03045018E0008007108F30076
:100498007008F200F336F20CF336F20C72084601DB
:1004A800950070080339F2000530F235FF3E031D50
:1004B800592A7235940008008231BB228231823178
:1004C800AA2282318131B22182318231A022823145
:1004D8008231C32282318231B32282318231342285
:1004E80008004E01901001304001BF070030C03DA8
:1004F80000304002053003193F02031C0800823116
:1005080095224001BF01C0010800E4340234FF34E1
:100518000034003400340034003400340034003433
:1005280000344001570858040319080058088A0085
:1005380057080A0082310800603051018D008F0190
:1005480091010630930090019201080043018F0148
:100558000830900091014F308D00901208008030D3
:10056800460196007C309500C030940008004F0189
:1005780096019701980199019A019B0108000130A1
:1005880041019D0070309E009B019C0108006400A1
:1005980080010131890BCC2A003440014E08D80073
:1005A8004D08D700080044018D018C0131308E00C0
:1005B80008008231E022080045018E170800013446
:0405C800080008001F
:020000040001F9
:0A000E00EC3FFF3F9F3FFF3FFF3F25
:00000001FF
